:100000000A128A11702C00308A000408840A8207C0
:10001000003436342D34443449344734493454346C
:100020002034503441345334533457344F345234E1
:100030004434003450344C34453441345334453422
:10004000203445344E34543445345234003453341F
:100050005534433443344534533453342134003419
:0E0060004534523452344F345234213400347B
:10071E0031343234333434343534363483120313B3
:10072E0089100914851605160800831203138914FF
:10073E00091085160516080083120313891409146F
:10074E0085120516080083120313891409148516E1
:10075E00051208008312031306150030F300003053
:10076E00F2001F30F1004030F0000A128A119F246F
:10077E000A128A11831203130611080001300A129D
:10078E008A11D9230A128A110030F3000030F200C8
:10079E000030F1003230F0000A128A119F240A1242
:1007AE008A110800F80083120313071078088800D6
:1007BE000030F3000030F2000030F1003230F00073
:1007CE000A128A119F240A128A110A128A112824E7
:1007DE000A128A110800F80083120313071478080E
:1007EE0088000030F3000030F2000030F1003230AB
:1007FE00F0000A128A119F240A128A110A128A1113
:10080E0028240A128A110800FA0010307A020318FE
:10081E00112C122C1A2C7A08803E0A128A11D92316
:10082E000A128A11272C7A08EC3EF9007908FA0090
:10083E007A08C03E0A128A11D9230A128A11272C6D
:10084E0008008312031387140030F3000030F20007
:10085E000030F1003230F0000A128A119F240A1281
:10086E008A118312031387100030F3000030F20058
:10087E000030F1003230F0000A128A119F240A1261
:10088E008A110800FB00FA015D2C7B0884000A1215
:10089E008A1103200A128A110A128A11F2230A12ED
:1008AE008A110130F9007908FB075D2C7B08031DC6
:1008BE00612C6F2C7B0884000A128A1103200A1205
:1008CE008A110038031D6C2C6D2C4C2C6F2C6F2C48
:1008DE000800FC01A001A101A201A301A401A50130
:1008EE000A128A118F230A128A11A6000A128A117D
:1008FE0090230A128A11A7000A128A1191230A1252
:10090E008A11A8000A128A1192230A128A11A900CA
:10091E000A128A1193230A128A11AA000A128A1144
:10092E0094230A128A11AB0083010A128A11102F26
:10093E007308720471047004031DA62CA72CA92C35
:10094E00CE2CCE2C0130F4000030F5000030F60035
:10095E000030F7007408F0027508031C750FB82CF0
:10096E00B92CF1027608031C760FBE2CBF2CF202B6
:10097E007708031C770FC42CC52CF302730872047E
:10098E0071047004031DCC2CCD2CA92CCE2C080088
:10099E00831203138519D42CD52CFF2CD72CD72CCE
:1009AE00851DDA2CDB2CD72CDC2CFC08031DE02C4F
:1009BE00E12CE62C0A128A11C5230A128A117C0830
:1009CE000A128A110B240A128A112A300A128A116B
:1009DE00F2230A128A112330FB007C08203E840089
:1009EE007B08831380000130FB007B08FC07FF2C83
:1009FE0008008312031306150030F3000030F200D6
:100A0E001F30F1004030F0000A128A119F240A12A2
:100A1E008A118312031306110030F3000030F20026
:100A2E003230F100C830F0000A128A119F240A12E7
:100A3E008A118312031306150030F3000030F20002
:100A4E001F30F1004030F0000A128A119F240A1262
:100A5E008A118312031306110800831203138518DB
:100A6E00392D3A2D642D3C2D3C2D851C3F2D402DCE
:100A7E003C2D412DFC08031D452D462D4B2D0A12F4
:100A8E008A11C5230A128A117C080A128A110B24B4
:100A9E000A128A112A300A128A11F2230A128A11B4
:100AAE003930FB007C08203E84007B0883138000D5
:100ABE000130FB007B08FC07932D0518672D682D70
:100ACE00932D6A2D6A2D051C6D2D6E2D6A2D6F2DA1
:100ADE00FC08031D732D742D792D0A128A11C5235E
:100AEE000A128A117C080A128A110B240A128A1120
:100AFE002A300A128A11F2230A128A113830FB00A8
:100B0E007C08203E84007B08831380000130FB00AC
:100B1E007B08FC07932D932D080083120313851970
:100B2E00992D9A2DC42D9C2D9C2D851D9F2DA02D6C
:100B3E009C2DA12DFC08031DA52DA62DAB2D0A1253
:100B4E008A11C5230A128A117C080A128A110B24F3
:100B5E000A128A112A300A128A11F2230A128A11F3
:100B6E003330FB007C08203E84007B08831380001A
:100B7E000130FB007B08FC07512E0519C72DC82D2F
:100B8E00F22DCA2DCA2D051DCD2DCE2DCA2DCF2D40
:100B9E00FC08031DD32DD42DD92D0A128A11C5237D
:100BAE000A128A117C080A128A110B240A128A115F
:100BBE002A300A128A11F2230A128A113230FB00ED
:100BCE007C08203E84007B08831380000130FB00EC
:100BDE007B08FC07512E8518F52DF62D202EF82DAD
:100BEE00F82D851CFB2DFC2DF82DFD2DFC08031D6D
:100BFE00012E022E072E0A128A11C5230A128A11FD
:100C0E007C080A128A110B240A128A112A300A123F
:100C1E008A11F2230A128A113130FB007C08203E21
:100C2E0084007B08831380000130FB007B08FC07E7
:100C3E00512E0518232E242E512E262E262E051C1F
:100C4E00292E2A2E262E2B2EFC08031D2F2E302E5B
:100C5E00352E0A128A11C5230A128A117C080A122D
:100C6E008A110B240A128A112A300A128A11F223CF
:100C7E000A128A113030FB007C08203E84007B086B
:100C8E00831380000130FB007B08FC07512E512E90
:100C9E00512E512E0800831203138519572E582EEC
:100CAE00822E5A2E5A2E851D5D2E5E2E5A2E5F2EA8
:100CBE00FC08031D632E642E692E0A128A11C523A9
:100CCE000A128A117C080A128A110B240A128A113E
:100CDE002A300A128A11F2230A128A113730FB00C7
:100CEE007C08203E84007B08831380000130FB00CB
:100CFE007B08FC070F2F0519852E862EB02E882E09
:100D0E00882E051D8B2E8C2E882E8D2EFC08031DF5
:100D1E00912E922E972E0A128A11C5230A128A112B
:100D2E007C080A128A110B240A128A112A300A121E
:100D3E008A11F2230A128A113630FB007C08203EFB
:100D4E0084007B08831380000130FB007B08FC07C6
:100D5E000F2F8518B32EB42EDE2EB62EB62E851C72
:100D6E00B92EBA2EB62EBB2EFC08031DBF2EC02EDA
:100D7E00C52E0A128A11C5230A128A117C080A127C
:100D8E008A110B240A128A112A300A128A11F223AE
:100D9E000A128A113530FB007C08203E84007B0845
:100DAE00831380000130FB007B08FC070F2F051812
:100DBE00E12EE22E0F2FE42EE42E051CE72EE82E58
:100DCE00E42EE92EFC08031DED2EEE2EF32E0A1254
:100DDE008A11C5230A128A117C080A128A110B2461
:100DEE000A128A112A300A128A11F2230A128A1161
:100DFE003430FB007C08203E84007B088313800087
:100E0E000130FB007B08FC070F2F0F2F0F2F0F2F2A
:100E1E0008000630831603139F00CF30850086012D
:100E2E008801F0308700890183120313870188013E
:100E3E00861006110711871109300A128A11D9235B
:100E4E000A128A1102300A128A11D9230A128A1141
:100E5E0006300A128A11D9230A128A110C300A128C
:100E6E008A11D9230A128A1138300A128A11D9230B
:100E7E000A128A110A128A11C5230A128A11003027
:100E8E00F3000030F2000330F100E830F0000A12F7
:100E9E008A119F240A128A1100300A128A110B2419
:100EAE000A128A1112300A128A1149240A128A1160
:100EBE0014300A128A110B240A128A1101300A12F6
:100ECE008A1149240A128A116C2F0A128A1195234B
:100EDE000A128A110A128A11CF240A128A110A12D0
:100EEE008A119C230A128A110A128A1194250A1257
:100EFE008A110A128A11A3230A128A110A128A115E
:100F0E0052260A128A110A128A11AA230A128A1169
:100F1E000A128A1134250A128A117C08063A031D18
:100F2E00992F9A2F6C2FFC0183120313200826068B
:100F3E00031DA22FA32FDE2F21082706031DA82F86
:100F4E00A92FDE2F22082806031DAE2FAF2FDE2F6E
:100F5E0023082906031DB42FB52FDE2F24082A06D9
:100F6E00031DBA2FBB2FDE2F25082B06031DC02F06
:100F7E00C12FDE2F0A128A11C5230A128A110030E0
:100F8E000A128A110B240A128A111F300A128A11B0
:100F9E0049240A128A1183120313071586140A12A2
:100FAE008A11B1230A128A11DC2FDC2F6C2F0A1240
:100FBE008A11C5230A128A1100300A128A110B24D3
:100FCE000A128A1128300A128A1149240A128A1129
:100FDE008312031387150A128A1100250A128A1129
:100FEE00F82FF82F6C2F6C2F6C2F6C2F0A128A1182
:020FFE000028C9
:02400E00323F3F
:00000001FF
