:100000000A128A11412C00308A000408840A8207EF
:10001000003436342D34443449344734493454346C
:100020002034503441345334533457344F345234E1
:100030004434003450344C34453441345334453422
:10004000203445344E34543445345234003453341F
:100050005534433443344534533453342134003419
:0E0060004534523452344F345234213400347B
:1006C0003134323433343434353436348312031312
:1006D000891009148516051608008312031389145E
:1006E00009108516051608008312031389140914CE
:1006F0008512051608008312031389140914851640
:10070000051208008312031306150030F3000030B1
:10071000F2001F30F1004030F0000A128A117024FC
:100720000A128A11831203130611080001300A12FB
:100730008A11AA230A128A110030F3000030F20055
:100740000030F1003230F0000A128A1170240A12CF
:100750008A110800F8008312031307107808880034
:100760000030F3000030F2000030F1003230F000D1
:100770000A128A1170240A128A110A128A11F923A4
:100780000A128A110800F80083120313071478086C
:1007900088000030F3000030F2000030F100323009
:1007A000F0000A128A1170240A128A110A128A11A0
:1007B000F9230A128A110800FA0010307A0203188D
:1007C000E22BE32BEB2B7A08803E0A128A11AA2334
:1007D0000A128A11F82B7A08EC3EF9007908FA001F
:1007E0007A08C03E0A128A11AA230A128A11F82B2B
:1007F00008008312031387140030F3000030F20066
:100800000030F1003230F0000A128A1170240A120E
:100810008A118312031387100030F3000030F200B6
:100820000030F1003230F0000A128A1170240A12EE
:100830008A110800FB00FA012E2C7B0884000A12A2
:100840008A1103200A128A110A128A11C3230A127A
:100850008A110130F9007908FB072E2C7B08031D53
:10086000322C402C7B0884000A128A1103200A12C1
:100870008A110038031D3D2C3E2C1D2C402C402C91
:100880000800FC01A001A101A201A301A401A5018E
:100890000A128A1160230A128A11A6000A128A110A
:1008A00061230A128A11A7000A128A1162230A120E
:1008B0008A11A8000A128A1163230A128A11A90058
:1008C0000A128A1164230A128A11AA000A128A11D2
:1008D00065230A128A11AB0083010A128A11102FB4
:1008E0007308720471047004031D772C782C7A2C21
:1008F0009F2C9F2C0130F4000030F5000030F600F2
:100900000030F7007408F0027508031C750F892C7D
:100910008A2CF1027608031C760F8F2C902CF202A1
:100920007708031C770F952C962CF302730872043A
:1009300071047004031D9D2C9E2C7A2C9F2C0800A2
:10094000831203130519A52CA62CD02CA82CA82C97
:10095000051DAB2CAC2CA82CAD2CFC08031DB12C18
:10096000B22CB72C0A128A1196230A128A117C081B
:100970000A128A11DC230A128A112A300A128A11F9
:10098000C3230A128A112330FB007C08203E840016
:100990007B08831380000130FB007B08FC07D02C10
:1009A00008008312031306150030F3000030F20034
:1009B0001F30F1004030F0000A128A1170240A1230
:1009C0008A118312031306110030F3000030F20085
:1009D0003230F100C830F0000A128A1170240A1275
:1009E0008A118312031306150030F3000030F20061
:1009F0001F30F1004030F0000A128A1170240A12F0
:100A00008A118312031306110800831203130519B8
:100A10000A2D0B2D352D0D2D0D2D051D102D112DF4
:100A20000D2D122DFC08031D162D172D1C2D0A123D
:100A30008A1196230A128A117C080A128A11DC2371
:100A40000A128A112A300A128A11C3230A128A1141
:100A50003930FB007C08203E84007B088313800033
:100A60000130FB007B08FC07932D8518382D392DAC
:100A7000632D3B2D3B2D851C3E2D3F2D3B2D402DC9
:100A8000FC08031D442D452D4A2D0A128A11962378
:100A90000A128A117C080A128A11DC230A128A11AE
:100AA0002A300A128A11C3230A128A113630FB0037
:100AB0007C08203E84007B08831380000130FB000B
:100AC0007B08FC07932D0518662D672D932D692D46
:100AD000692D051C6C2D6D2D692D6E2DFC08031DD7
:100AE000722D732D782D0A128A1196230A128A11FB
:100AF0007C080A128A11DC230A128A112A300A128F
:100B00008A11C3230A128A113030FB007C08203E70
:100B100084007B08831380000130FB007B08FC0706
:100B2000932D932D932D0800831203138519992D6E
:100B30009A2DC42D9C2D9C2D851D9F2DA02D9C2D67
:100B4000A12DFC08031DA52DA62DAB2D0A128A117F
:100B500096230A128A117C080A128A11DC230A12CF
:100B60008A112A300A128A11C3230A128A112A30E2
:100B7000FB007C08203E84007B088313800001304A
:100B8000FB007B08FC07512E0519C72DC82DF22D3F
:100B9000CA2DCA2D051DCD2DCE2DCA2DCF2DFC0859
:100BA000031DD32DD42DD92D0A128A1196230A1292
:100BB0008A117C080A128A11DC230A128A112A304F
:100BC0000A128A11C3230A128A113730FB007C08EB
:100BD000203E84007B08831380000130FB007B08EB
:100BE000FC07512E8518F52DF62D202EF82DF82D09
:100BF000851CFB2DFC2DF82DFD2DFC08031D012E61
:100C0000022E072E0A128A1196230A128A117C08D4
:100C10000A128A11DC230A128A112A300A128A1156
:100C2000C3230A128A113430FB007C08203E840062
:100C30007B08831380000130FB007B08FC07512EEA
:100C40000518232E242E512E262E262E051C292E45
:100C50002A2E262E2B2EFC08031D2F2E302E352E4D
:100C60000A128A1196230A128A117C080A128A1122
:100C7000DC230A128A112A300A128A11C3230A12AB
:100C80008A113130FB007C08203E84007B088313EE
:100C900080000130FB007B08FC07512E512E512EA5
:100CA000512E0800831203138519572E582E822EB9
:100CB0005A2E5A2E851D5D2E5E2E5A2E5F2EFC0852
:100CC000031D632E642E692E0A128A1196230A12BE
:100CD0008A117C080A128A11DC230A128A112A302E
:100CE0000A128A11C3230A128A113330FB007C08CE
:100CF000203E84007B08831380000130FB007B08CA
:100D0000FC070F2F0519852E862EB02E882E882ED3
:100D1000051D8B2E8C2E882E8D2EFC08031D912EEA
:100D2000922E972E0A128A1196230A128A117C0893
:100D30000A128A11DC230A128A112A300A128A1135
:100D4000C3230A128A113830FB007C08203E84003D
:100D50007B08831380000130FB007B08FC070F2F0A
:100D60008518B32EB42EDE2EB62EB62E851CB92EC7
:100D7000BA2EB62EBB2EFC08031DBF2EC02EC52ECC
:100D80000A128A1196230A128A117C080A128A1101
:100D9000DC230A128A112A300A128A11C3230A128A
:100DA0008A113530FB007C08203E84007B088313C9
:100DB00080000130FB007B08FC070F2F0518E12E97
:100DC000E22E0F2FE42EE42E051CE72EE82EE42E53
:100DD000E92EFC08031DED2EEE2EF32E0A128A11C9
:100DE00096230A128A117C080A128A11DC230A123D
:100DF0008A112A300A128A11C3230A128A11323048
:100E0000FB007C08203E84007B08831380000130B7
:100E1000FB007B08FC070F2F0F2F0F2F0F2F080051
:100E20000630831603139F00CF30850086018801AA
:100E3000F03087008901831203138701880186102F
:100E400006110711871109300A128A11AA230A1202
:100E50008A1102300A128A11AA230A128A11063054
:100E60000A128A11AA230A128A110C300A128A1154
:100E7000AA230A128A1138300A128A11AA230A12E6
:100E80008A110A128A1196230A128A110030F3007D
:100E90000030F2000330F100E830F0000A128A114D
:100EA00070240A128A1100300A128A11DC230A12F5
:100EB0008A1112300A128A111A240A128A11143065
:100EC0000A128A11DC230A128A1101300A128A11CD
:100ED0001A240A128A116C2F0A128A1166230A1226
:100EE0008A110A128A1194250A128A110A128A1189
:100EF0006D230A128A110A128A1152260A128A11C5
:100F00000A128A1174230A128A110A128A110525FB
:100F10000A128A110A128A117B230A128A110A12F2
:100F20008A11A0240A128A117C08063A031D992FFF
:100F30009A2F6C2FFC018312031320082606031D31
:100F4000A22FA32FDE2F21082706031DA82FA92FCC
:100F5000DE2F22082806031DAE2FAF2FDE2F230819
:100F60002906031DB42FB52FDE2F24082A06031DE2
:100F7000BA2FBB2FDE2F25082B06031DC02FC12F34
:100F8000DE2F0A128A1196230A128A1100300A12E1
:100F90008A11DC230A128A111F300A128A111A24BC
:100FA0000A128A1183120313071586140A128A1172
:100FB00082230A128A11DC2FDC2F6C2F0A128A116D
:100FC00096230A128A1100300A128A11DC230A12AF
:100FD0008A1128300A128A111A240A128A118312DD
:100FE000031387150A128A11D1240A128A11F82FC5
:100FF000F82F6C2F6C2F6C2F6C2F0A128A1100287F
:02400E00323F3F
:00000001FF
