:100000000A128A11D32F00308A000408840A82075A
:10001000003436342D34443449344734493454346C
:100020002034503441345334533457344F345234E1
:100030004434003450344C34453441345334453422
:10004000203445344E34543445345234003453341F
:100050005534433443344534533453342134003419
:0E0060004534523452344F345234213400347B
:1008AA003134323433343434353436348312031326
:1008BA008910091485160516080083120313891472
:1008CA0009108516051608008312031389140914E2
:1008DA008512051608008312031389140914851654
:1008EA00051208008312031306150030F3000030C6
:1008FA00F2001F30F1004030F0000A128A111E2562
:10090A00831203130611080001300A128A11B12456
:10091A000A128A110030F3000030F2000030F100B0
:10092A003230F0000A128A111E250800FA0010302F
:10093A007A020318A62C7A08803E0A128A11B12478
:10094A0008007A08EC3EF9007908FA007A08C03EF5
:10095A000A128A11B1240800F8008312031307103F
:10096A00780888000030F3000030F2000030F1000F
:10097A003230F0000A128A111E250A128A110A124E
:10098A008A11DF240800F800831203130714780879
:10099A0088000030F3000030F2000030F1003230FD
:1009AA00F0000A128A111E250A128A110A128A11E5
:1009BA00DF2408008312031387140030F300003089
:1009CA00F2000030F1003230F0000A128A111E25BE
:1009DA000A128A118312031387100030F3000030C1
:1009EA00F2000030F1003230F0000A128A111E259E
:1009FA000800FB00FA017B08031908007B08840041
:100A0A000A128A1103200A128A11003A03190800ED
:100A1A007B0884000A128A1103200A128A110A1218
:100A2A008A11C8240A128A110130F9007908FB07D1
:100A3A00002D730872047104700403190800013050
:100A4A00F4000030F5000030F6000030F7007408BA
:100A5A00F0027508031C750F332D342DF102760848
:100A6A00031C760F392D3A2DF2027708031C770FF3
:100A7A003F2D1E2DF3021E2D831203138519080024
:100A8A00851D452D7C08031D4F2D0A128A118924C4
:100A9A000A128A117C080A128A119B240A128A11E4
:100AAA002A300A128A11C8242330FB007C08203E0F
:100ABA0084007B08831380000130FB007B08FC075D
:100ACA0008008312031306150030F3000030F20009
:100ADA001F30F1004030F0000A128A111E250A1256
:100AEA008A118312031306110030F3000030F2005A
:100AFA003230F100C830F0000A128A111E250A129B
:100B0A008A118312031306150030F3000030F20035
:100B1A001F30F1004030F0000A128A111E2583129C
:100B2A00031306110800831203138518BD2D851CB3
:100B3A009C2D7C08031DA62D0A128A1189240A12EB
:100B4A008A117C080A128A119B240A128A112A30F5
:100B5A000A128A11C8243930FB007C08203E84001E
:100B6A007B08831380000130FB007B08FC07080028
:100B7A0005180800051CBF2D7C08031DC92D0A1283
:100B8A008A1189240A128A117C080A128A119B2462
:100B9A000A128A112A300A128A11C8243830FB0034
:100BAA007C08203E84007B08831380000130FB0010
:100BBA007B08FC070800831203138519052E851D7F
:100BCA00E42D7C08031DEE2D0A128A1189240A12CB
:100BDA008A117C080A128A119B240A128A112A3065
:100BEA000A128A11C8243330FB007C08203E840094
:100BFA007B08831380000130FB007B08FC07080098
:100C0A000519282E051D072E7C08031D112E0A1210
:100C1A008A1189240A128A117C080A128A119B24D1
:100C2A000A128A112A300A128A11C8243230FB00A9
:100C3A007C08203E84007B08831380000130FB007F
:100C4A007B08FC07080085184B2E851C2A2E7C0879
:100C5A00031D342E0A128A1189240A128A117C0869
:100C6A000A128A119B240A128A112A300A128A113C
:100C7A00C8243130FB007C08203E84007B088313A3
:100C8A0080000130FB007B08FC07080005180800FB
:100C9A00051C4D2E7C08031D572E0A128A11892421
:100CAA000A128A117C080A128A119B240A128A11D2
:100CBA002A300A128A11C8243030FB007C08203EF0
:100CCA0084007B08831380000130FB007B08FC074B
:100CDA000800831203138519932E851D722E7C0832
:100CEA00031D7C2E0A128A1189240A128A117C0891
:100CFA000A128A119B240A128A112A300A128A11AC
:100D0A00C8243730FB007C08203E84007B0883130C
:100D1A0080000130FB007B08FC0708000519B62E8D
:100D2A00051D952E7C08031D9F2E0A128A118924FF
:100D3A000A128A117C080A128A119B240A128A1141
:100D4A002A300A128A11C8243630FB007C08203E59
:100D5A0084007B08831380000130FB007B08FC07BA
:100D6A0008008518D92E851CB82E7C08031DC22EB2
:100D7A000A128A1189240A128A117C080A128A1113
:100D8A009B240A128A112A300A128A11C824353081
:100D9A00FB007C08203E84007B088313800001301E
:100DAA00FB007B08FC07080005180800051CDB2E61
:100DBA007C08031DE52E0A128A1189240A128A1157
:100DCA007C080A128A119B240A128A112A300A12F2
:100DDA008A11C8243430FB007C08203E84007B083A
:100DEA00831380000130FB007B08FC0708000630F3
:100DFA00831603139F00CF30850086018801F030E7
:100E0A00870089018312031387018801861006115E
:100E1A000711871109300A128A11B1240A128A119C
:100E2A0002300A128A11B1240A128A1106300A12F1
:100E3A008A11B1240A128A110C300A128A11B124B9
:100E4A000A128A1138300A128A11B1240A128A1136
:100E5A000A128A1189240A128A110030F30000301A
:100E6A00F2000330F100E830F0000A128A111E2560
:100E7A000A128A1100300A128A119B240A128A1154
:100E8A0012300A128A11FE240A128A1114300A1226
:100E9A008A119B240A128A1101300A128A11FE242D
:100EAA000A128A110A128A115B240A128A110A1278
:100EBA008A1141250A128A110A128A1162240A1217
:100ECA008A110A128A11E0250A128A110A128A1153
:100EDA0069240A128A110A128A116E260A128A11C2
:100EEA000A128A1170240A128A110A128A11982582
:100EFA000A128A1106307C06031D572FFC01831241
:100F0A00031320082606031DB92F21082706031DEF
:100F1A00B92F22082806031DB92F23082906031D05
:100F2A00B92F24082A06031DB92F25082B06031DED
:100F3A00B92F0A128A1189240A128A1100300A1258
:100F4A008A119B240A128A111F300A128A11FE245E
:100F5A000A128A1183120313071586140A128A11B8
:100F6A0077240A128A11B82F0A128A1189240A12BE
:100F7A008A1100300A128A119B240A128A11283017
:100F8A000A128A11FE240A128A1183120313871580
:100F9A000A128A1166250A128A11D22FFC01A001AF
:100FAA00A101A201A301A401A5010A128A115524D3
:100FBA000A128A11A6000A128A1156240A128A11E2
:100FCA00A7000A128A1157240A128A11A8000A12C3
:100FDA008A1158240A128A11A9000A128A1159245C
:100FEA000A128A11AA000A128A115A24AB00830132
:060FFA000A128A11FC2E10
:02400E0032FF7F
:00000001FF
